:020000040800F2
:100000001806002025220008092200080B220008FB
:100010000F22000813220008172200080000000029
:100020000000000000000000000000001B2200088B
:100030001D220008000000001F22000821220008E5
:100040003F2200083F2200083F2200083F2200080C
:100050003F2200083F2200083F2200083F220008FC
:100060003F2200083F2200083F2200083F220008EC
:100070003F2200083F2200083F2200083F220008DC
:100080003F2200083F2200083F2200083F220008CC
:100090003F2200083F2200083F2200083F220008BC
:1000A0003F2200083F2200083F2200083F220008AC
:1000B0003F220008894400083F2200083F22000830
:1000C0003F2200083F2200083F2200083F2200088C
:1000D0003F220008A54300083F2200083F220008F5
:1000E0003F2200083F2200083F2200083F2200086C
:1000F0003F2200083F2200083F2200083F2200085C
:100100003F2200083F2200083F2200083F2200084B
:100110003F2200083F2200083F2200083F2200083B
:100120003F2200083F2200083F2200083F2200082B
:100130003F2200083F2200083F2200083F2200081B
:100140003F2200083F2200083F2200083F2200080B
:100150003F2200083F2200083F2200083F220008FB
:100160003F2200083F2200083F2200083F220008EB
:100170003F2200083F2200083F2200083F220008DB
:100180003F2200083F220008DFF80CD005F096FF60
:10019000004800479D010008180600202DED048B43
:1001A00082B04FF4A06002F057F904F01AF84FF44F
:1001B000165004F0A1F804F0F9FE05F0CDFA42F271
:1001C000CF01312004F034F904F08AFF05F004F87F
:1001D0009FEDFD0AFD4880ED000A90ED000AF7EE64
:1001E000000A30EE200ADFEDFA0A20EE200ABCEE0B
:1001F000C00A10EE100AF74908800121F54800886E
:1002000005F0CAFA0121F348008805F00BFB012133
:10021000F048008805F051FB0121EE48008805F008
:1002200097FB0221EB48008805F0B6FA0221E94865
:10023000008805F0F7FA0221E648008805F03DFB4A
:100240000221E448008805F083FB0321E14800888F
:1002500005F0A2FA0321DF48008805F0E3FA032144
:10026000DC48008805F029FB0321DA48008805F006
:100270006FFB0421D748008805F08EFA0421D54889
:10028000008805F0CFFA0421D248008805F015FB5C
:100290000421D048008805F05BFB0921CD48008887
:1002A00005F07AFA0921CB48008805F0BBFA09214C
:1002B000C848008805F001FB0921C648008805F000
:1002C00047FBB6EE000AC44880ED000A9FEDC30A62
:1002D000C34880ED000A9FEDC30AC34880ED000AC1
:1002E000B6EE000AC14880ED000A9FEDC10AC14880
:1002F00080ED000A9FEDC00AC04880ED000A9FED26
:10030000C00AC04880ED000A9FEDBF0ABF4880EDDB
:10031000000A9FEDBF0ABF4880ED000A9FEDBE0AAC
:10032000BE4880ED000A9FEDBE0ABE4880ED000A7F
:100330009FEDA50ABC4880ED000A9FEDA30ABB48CB
:1003400080ED000A9FEDA00AB94880ED000A9FEDFC
:100350009E0AB84880ED000A9FED9B0AB64880EDE2
:10036000000A9FED990AB54880ED000A9FED960AB4
:10037000B34880ED000A9FED940AB24880ED000A70
:100380009FED910AB04880ED000A9FED8F0AAF48BB
:1003900080ED000A9FED8C0AAD4880ED000A9FEDCC
:1003A0008A0AAC4880ED000A9FED870AAA4880EDD2
:1003B000000A9FED850AA94880ED000A01F00DBFF3
:1003C000A748008800F40040002801F0F386A54803
:1003D000007849287DD1A34840786E28FAD105F0ED
:1003E000BBF9A0488178A0A005F0B6FE9D488078B2
:1003F00046286FD014DC41286DD008DCA0F1300015
:10040000052869D2DFE800F025ACDFDEDD004228F8
:100410007DD043287CD044287BD045285CD13CE368
:10042000632877D00CDC492875D004DC472873D0CA
:100430004828F3D1E6E361286FD06228EED1FCE3CF
:1004400064286BD065286AD0662869D06728E5D112
:10045000F4E3002089490860894890ED000AF1EE34
:10046000040A20EE200A614880ED000A9FED600A30
:10047000604880ED000A9FED600A604880ED000A48
:100480009FED5F0A5F4880ED000A9FED5F0A5F48BD
:1004900080ED000A9FED5E0A5E4880ED000A9FED48
:1004A0005E0A5E4880ED000A9FED5D0A5D4880EDC2
:1004B000000A9FED450A5C4880ED000A9FED420A64
:1004C0005A4880ED000A9FED400A594880ED000A25
:1004D00003E0FCE3FCE3FCE3FCE39FED3B0A55484F
:1004E00080ED000A9FED380A534880ED000A9FED29
:1004F000360A524880ED000A9FED330A504880EDDD
:10050000000A9FED310A4F4880ED000A09E0FCE344
:10051000FCE3FCE3FCE3FCE3FCE368E2FBE3FBE37A
:10052000FBE39FED290A484880ED000A9FED260A6B
:10053000464880ED000A9FED240A454880ED000AF8
:100540009FED210A434880ED000A9FED1F0A4248B3
:1005500080ED000A9FED1C0A404880ED000AB9E3D7
:10056000012046490860464890ED000AF1EE040A71
:1005700020EE200A1D4880ED000A9FED420A1D482A
:1005800080ED000A9FED400A1C4880ED000A9FEDB7
:100590003F0A1C4880ED000A9FED3D0A1B4880ED94
:1005A000000A9FED3C0A1B4880ED000A9FED3A0AC5
:1005B0001A4880ED000A9FED390A1A4880ED000ABA
:1005C0006EE0A2E12AE1B2E000000000000000209D
:1005D0000000004504000020300000206F12833A24
:1005E00034000020EE7CFF3E380000203C0000205C
:1005F000DD24863E4000002065A551BF4400002058
:10060000DF377E3E480000209279D43E4C00002027
:10061000C7F4043D5000002045BB8ABE54000020B2
:10062000221A9D3D58000020600000206400002038
:10063000680000206C000020700000207400002082
:10064000780000207C000020800000208400002032
:10065000880000208C0000209000002094000020E2
:10066000EC0000204C010020547970653A256309A4
:1006700053746172742E2E2E0D0A00005C0000204F
:10068000BC0000205F070EBFCA3244BD789C82BF09
:100690002B87A6BF52B8DEBE378921BF24977FBC07
:1006A0009FEDFE0AFE4880ED000A9FEDFE0AFE481F
:1006B00080ED000A9FEDFD0AFD4880ED000A9FEDE8
:1006C000FD0AFD4880ED000A9FEDFC0AFC4880ED24
:1006D000000A9FEDFC0AFC4880ED000A9FEDFB0A32
:1006E000FB4880ED000A9FEDFB0AFB4880ED000A05
:1006F0009FEDFA0AFA4880ED000A9FEDFA0AFA48DF
:1007000080ED000A9FEDF90AF94880ED000A9FED9F
:10071000F90AF94880ED000A9FEDF80AF84880EDE3
:10072000000A9FEDF80AF84880ED000A17E702205A
:10073000F6490860F64890ED000AF1EE040A20EE52
:10074000200AF44880ED000A1FED320AF24880EDDD
:10075000000A1FED330AF14880ED000A1FED350A4B
:10076000EF4880ED000A1FED360AEE4880ED000AE2
:100770001FED380AEC4880ED000A1FED390AEB48FE
:1007800080ED000A1FED3B0AE94880ED000A9FED6D
:10079000E90AC34880ED000A9FEDE70AC24880EDF0
:1007A000000A9FEDE60AC24880ED000A9FEDE40AC8
:1007B000C14880ED000A9FEDE30AC14880ED000AC0
:1007C0009FEDE10AC04880ED000A9FEDE00AC048B5
:1007D00080ED000A9FEDDE0ABF4880ED000A9FED24
:1007E000DD0ABF4880ED000A9FEDDB0ABE4880EDC0
:1007F000000A9FEDDA0ABE4880ED000A9FEDD80A94
:10080000BD4880ED000A9FEDD70ABD4880ED000A83
:100810009FEDD50ABC4880ED000AA0E60320BB4945
:100820000860BB4890ED000AF1EE040A20EE200AB1
:10083000B84880ED000A1FED6D0AB74880ED000A48
:100840001FED6F0AB54880ED000A1FED700AB4482D
:1008500080ED000A1FED720AB24880ED000A1FED1C
:10086000730AB14880ED000A1FED750AAF4880EDAC
:10087000000A1FED760AAE4880ED000A9FEDBB0A24
:10088000874880ED000A9FEDBA0A874880ED000A8C
:100890009FEDB80A864880ED000A9FEDB70A8648AA
:1008A00080ED000A9FEDB50A854880ED000A9FEDB6
:1008B000B40A854880ED000A9FEDB20A844880EDB5
:1008C000000A9FEDB10A844880ED000A9FEDAF0A4F
:1008D000834880ED000A9FEDAE0A834880ED000A50
:1008E0009FEDAC0A824880ED000A9FEDAB0A82487A
:1008F00080ED000A9FEDA90A814880ED000A9FED76
:10090000A80A814880ED000A29E600207F49086096
:100910009FEDA40A7F4880ED000A9FEDA30A7E4860
:1009200080ED000A9FEDA10A7C4880ED000A9FED52
:10093000A00A7B4880ED000A9FED9E0A794880ED71
:10094000000A9FED9D0A784880ED000A9FED9B0A02
:10095000764880ED000A9FED9A0A754880ED000AFE
:100960001FEDE70A4E4880ED000A1FEDE90A4E48E8
:1009700080ED000A1FEDEC0A4D4880ED000A1FEDE6
:10098000EE0A4D4880ED000A1FEDF10A4C4880ED5B
:10099000000A1FEDF30A4C4880ED000A1FEDF60A2D
:1009A0004B4880ED000A1FEDF80A4B4880ED000A25
:1009B0001FEDFB0A4A4880ED000A9FED820A4A4873
:1009C00080ED000A9FED7F0A494880ED000A9FED07
:1009D0007D0A494880ED000A9FED7A0A484880ED7B
:1009E000000A9FED780A484880ED000AB7E54848BC
:1009F00090ED000AF1EE040A20EE200A454880ED51
:100A0000000A9FED710A444880ED000A9FED6F0ACD
:100A1000424880ED000A9FED6E0A414880ED000AD1
:100A20009FED6C0A3F4880ED000A9FED6B0A3E483F
:100A300080ED000A9FED690A3C4880ED000A9FEDB9
:100A4000680A3B4880ED000A9FED660A144880ED75
:100A5000000A9FED650A144880ED000A9FED630AC5
:100A6000134880ED000A9FED620A134880ED000AEA
:100A70009FED600A124880ED000A9FED5F0A124860
:100A800080ED000A9FED5D0A114880ED000A9FEDA0
:100A90005C0A114880ED000AB5E0FCE3280F9B3F9B
:100AA0006000002040A4BF3E640000207AC7C93E19
:100AB000680000202575A23E6C000020C7BA483FA0
:100AC00070000020302A993F74000020B1BF2C3FF5
:100AD000780000202D43BCBE7C0000200DE095BFB7
:100AE00080000020637F393F8400002046B6133F1A
:100AF00088000020B81EE53E8C000020075F983C6F
:100B0000900000207E8C99BE940000205C000020A4
:100B1000BC0000203C0000204000002044000020D9
:100B2000480000204C00002050000020540000200D
:100B300058000020FA7E923F27C2563F8F53B43EA2
:100B4000128340BDDA1B8C3FE8D9DC3FB29D6FBEFB
:100B5000651962BDAE47E1BE516B9ABD41F1833E5E
:100B60002575023E2B18F53E96430B3E448B6C3F99
:100B7000C3D32B3EB840C23E569FAB3D713D5A3F5A
:100B8000CDCC0C3F31996A3E3B01AD3ED3DE20BE59
:100B900061C3D33E789C223EF706DFBD3480373CEC
:100BA000A3013CBFCDCC4C3D581C3EBF7C0FD73F72
:100BB0001CCE88BF46084F3E3ACC373F52F2A23F88
:100BC000DBBF62BF000000009FABCD3FD3BCFB3F4B
:100BD000849E5D3F4625253F7593F8BEE0BE8EBDE1
:100BE000F01608BED0B381BFB30C013FE483BEBE94
:100BF0007958683EBBB81D3F17B7B13EB81E053FD8
:100C00009487253FFEE39FEDFE0AFE4880ED000A33
:100C10009FEDFD0AFD4880ED000A9FEDFD0AFD48AD
:100C200080ED000A9FEDFC0AFC4880ED000A9FED74
:100C3000FC0AFC4880ED000A01E006E002E39FEDBB
:100C4000FA0AFA4880ED000A89E4F94890ED000AB2
:100C5000F1EE040A20EE200AF64880ED000A1FEDAE
:100C6000260AF54880ED000A1FED280AF34880EDBA
:100C7000000A1FED290AF24880ED000A1FED2B0A39
:100C8000F04880ED000A1FED2C0AEF4880ED000AC5
:100C90001FED2E0AED4880ED000A1FED2F0AEC48EB
:100CA00080ED000A9FEDEB0AEB4880ED000A9FED16
:100CB000EB0AEB4880ED000A9FEDEA0AEA4880ED76
:100CC000000A9FEDEA0AEA4880ED000A03E0FDE32E
:100CD000FDE32DE341E29FEDE70AE74880ED000ADE
:100CE0009FEDE60AE64880ED000A9FEDE60AE64839
:100CF00080ED000A9FEDE50AE54880ED000A9FEDD2
:100D0000E50AC04880ED000A08E087E3FDE3FDE363
:100D10001EE0FCE3FCE38FE002E11FE29FEDDE0A50
:100D2000BA4880ED000A9FEDDD0ABA4880ED000A5E
:100D30009FEDDB0AB94880ED000A9FEDDA0AB94859
:100D400080ED000A9FEDD80AB84880ED000A06E45D
:100D5000B74890ED000AF1EE040A20EE200AB548EB
:100D600080ED000A1FED680AB34880ED000A1FED10
:100D7000690AB24880ED000A1FED6B0AB04880EDA9
:100D8000000A1FED6C0AAF4880ED000A1FED6E0AE5
:100D9000AD4880ED000A1FED6F0AAC4880ED000AF7
:100DA0001FED710AAA4880ED000A9FEDC00AAA480B
:100DB00080ED000A9FEDBE0AA94880ED000A9FED74
:100DC000BD0AA94880ED000A9FEDBB0AA84880ED46
:100DD000000A9FEDBA0AA84880ED000A9FEDB80A04
:100DE000A74880ED000A9FEDB70AA74880ED000AEA
:100DF0009FEDB50AA64880ED000A9FEDB40A814830
:100E000080ED000A9FEDB20A804880ED000A9FED58
:100E1000B10A804880ED000A9FEDAF0A7F4880ED5F
:100E2000000A9FEDAE0A7F4880ED000A9FEDAC0AF4
:100E30007E4880ED000A79E47D4890ED000AF1EEED
:100E4000040A20EE200A7B4880ED000A1FEDA20A6A
:100E5000794880ED000A1FEDA30A784880ED000A6A
:100E60001FEDA50A764880ED000A1FEDA60A754819
:100E700080ED000A1FEDA80A734880ED000A1FEDFF
:100E8000A90A724880ED000A1FEDAB0A704880ED98
:100E9000000A9FED940A704880ED000A9FED920AC7
:100EA0006F4880ED000A9FED910A6F4880ED000ABF
:100EB0009FED8F0A6E4880ED000A9FED8E0A6E4806
:100EC00080ED000A9FED8C0A6D4880ED000A9FEDD1
:100ED0008B0A6D4880ED000A9FED890A6C4880ED11
:100EE000000A9FED880A474880ED000A9FED860AB8
:100EF000464880ED000A9FED850A464880ED000ACD
:100F00009FED830A454880ED000A9FED820A45481F
:100F100080ED000A9FED800A444880ED000A05E458
:100F2000434890ED000AF1EE040A20EE200A414801
:100F300080ED000A1FEDDC0A3F4880ED000A1FED3E
:100F4000DD0A3E4880ED000A1FEDDF0A3C4880EDD7
:100F5000000A1FEDE00A3B4880ED000A1FEDE20A9F
:100F6000394880ED000A1FEDE30A384880ED000A99
:100F70001FEDE50A364880ED000A9FED680A364805
:100F800080ED000A9FED660A354880ED000A9FED6E
:100F9000650A354880ED000A9FED630A344880ED0C
:100FA000000A9FED620A344880ED000A9FED600A56
:100FB000334880ED000A9FED5F0A334880ED000A58
:100FC0009FED5D0A324880ED000A9FED5C0A0D48F6
:100FD00080ED000A9FED5A0A0C4880ED000A9FED53
:100FE000590A0C4880ED000A9FED570A0B4880ED26
:100FF000000A9FED560A0B4880ED000AA8E00000A9
:10100000DB8AFDBD8000002070CE683F8400002098
:101010004FAF243F880000204703F83E8C0000209B
:101020008FC2D5BE90000020910F2ABF94000020EF
:10103000BC0000203C0000204000002044000020B4
:10104000480000204C0000205000002054000020E8
:1010500058000020E5D032BF60000020D6C55D3FBB
:10106000640000207446543E680000209790EF3ED4
:101070006C0000209BE6B53F700000201E16AABE43
:1010800074000020A01A4F3F780000202DB2FD3ED2
:101090007C00002096218E3D567D6E3F63EEFA3E29
:1010A0002C65D93EB98D06BF477259BF14AEBFBF7C
:1010B00011C75A3FC286273D9031F7BDA1F8A13F25
:1010C000F775803E986E823F643B5F3E295C8F3CA3
:1010D000FE65273FD6C51D3FFDF6F53D668813BF6B
:1010E0003CBD9ABF38F8EABFF46CF63EBA490CBF73
:1010F000F8C2C4BE9CA2E33E925C6E3F51DA3B3F15
:101100008863BD3E22FD36BE3A922B3FD044483F15
:10111000D5E72A3EADFAFCBEB37B82BFC807ADBFA0
:10112000EFC9433D38F872BF17B7D138462575BEB1
:101130006ABC843FA4DF7E3E4694563F2506A1BE8E
:10114000E6AE853F5A645B3FC74B073F287E8CBEA7
:101150009FEDFE0AFE4880ED000A08E3FD4890ED91
:10116000000AF1EE040A20EE200AFB4880ED000A96
:101170009FEDFA0AFA4880ED000A9FEDFA0AFA4854
:1011800080ED000A9FEDF90AF94880ED000A9FED15
:10119000F90AF94880ED000A9FEDF80AF84880ED59
:1011A000000A9FEDF80AF84880ED000A9FEDF70A63
:1011B000F74880ED000A9FEDF70AF74880ED000A36
:1011C0009FEDF60AF64880ED000A9FEDF60AF64814
:1011D00080ED000A9FEDF50AF54880ED000A9FEDCD
:1011E000F50AF54880ED000A9FEDF40AF44880ED19
:1011F000000A9FEDF40AF44880ED000A9FEDF30A1F
:10120000F34880ED000A9FEDF30AF34880ED000AF1
:101210009FEDF20AF24880ED000A9FEDF20AF248D3
:1012200080ED000A9FEDF10AF14880ED000A9FED84
:10123000F10AF14880ED000A9FEDF00AC44880ED04
:10124000000A94E2C34890ED000AF1EE040A20EE91
:10125000200AC14880ED000A9FEDC00AC04880ED19
:10126000000A9FEDC00AC04880ED000A9FEDBF0A4A
:10127000BF4880ED000A9FEDBF0ABF4880ED000A1D
:101280009FEDBE0ABE4880ED000A9FEDBE0ABE4833
:1012900080ED000A00E0DFE29FEDBC0ABC4880ED73
:1012A000000A9FEDD70ABC4880ED000A9FEDD50AE1
:1012B000BB4880ED000A9FEDD40ABB4880ED000AD0
:1012C0009FEDD20ABA4880ED000A9FEDD10ABA48D4
:1012D00080ED000A9FEDCF0AB94880ED000A9FED2E
:1012E000CE0AB94880ED000A9FEDCC0AB84880EDDF
:1012F000000A9FEDCB0AB84880ED000A9FEDC90AAD
:10130000B74880ED000A9FEDC80AB74880ED000A93
:101310009FEDC60AB64880ED000A9FEDC50AB648A3
:1013200080ED000A9FEDC30A894880ED000A1EE2A5
:10133000884890ED000AF1EE040A20EE200A864863
:1013400080ED000A9FEDBC0A854880ED000A9FED04
:10135000BB0A854880ED000A9FEDB90A844880EDFC
:10136000000A9FEDB80A844880ED000A9FEDB60A96
:10137000834880ED000A9FEDB50A834880ED000A9E
:101380009FEDB30A824880ED000A9FEDB20A8248C1
:1013900080ED000A9FEDB00A814880ED000A9FEDC4
:1013A000AF0A814880ED000A9FEDAD0A804880EDCC
:1013B000000A9FEDAC0A804880ED000A9FEDAA0A62
:1013C0007F4880ED000A9FEDA90A7F4880ED000A62
:1013D0009FEDA70A7E4880ED000A9FEDA60A7E4891
:1013E00080ED000A9FEDA40A7D4880ED000A9FED84
:1013F000A30A7D4880ED000A9FEDA10A7C4880ED9C
:10140000000A00E05CE39FED9F0A7B4880ED000A44
:101410009FED9D0A4E4880ED000AA8E14D4890EDF1
:10142000000AF1EE040A20EE200A4B4880ED000A83
:101430009FED810A4A4880ED000A9FED800A4A48E4
:1014400080ED000A9FED7E0A494880ED000A9FED7D
:101450007D0A494880ED000A9FED7B0A484880EDEF
:10146000000A9FED7A0A484880ED000A9FED780A4D
:10147000474880ED000A9FED850A474880ED000A45
:101480009FED830A464880ED000A9FED740A4648A6
:1014900080ED000A9FED7F0A454880ED000A9FED30
:1014A0007E0A454880ED000A9FED7C0A444880EDA5
:1014B000000A9FED7B0A444880ED000A9FED790AFF
:1014C000434880ED000A9FED780A01E0FDE337E232
:1014D000414880ED000A9FED750A414880ED000A01
:1014E0009FED730A404880ED000A9FED720A404864
:1014F00080ED000A9FED700A3F4880ED000A9FEDE5
:101500006F0A134880ED000A31E102E030E1FCE3AC
:101510008AE2104890ED000AF1EE040A20EE200A5B
:101520000D4880ED000A9FED440A0D4880ED000A49
:101530009FED420A0C4880ED000A9FED410A0C48DD
:1015400080ED000A9FED3F0A0B48B9E0107AF6BE25
:1015500094000020BC0000203C0000209FABCD3F49
:1015600040000020D3BCFB3F44000020849E5D3F30
:10157000480000204625253F4C0000207593F8BE0A
:1015800050000020E0BE8EBD54000020F01608BEC2
:10159000580000200D710CBF600000202653053E4E
:1015A00064000020D0B349BF680000200F9C233F97
:1015B0006C0000205F074EBD70000020F163EC3E20
:1015C00074000020917EFB3C7800002011C7923F00
:1015D0007C00002031998ABE80000020F5B9AA3F26
:1015E00084000020787A353F88000020FAED5B3FC8
:1015F0008C0000208A1F23BE90000020053411BEFD
:10160000FBCB6EBEFED4183FE63F64BE83C05A3F9C
:1016100071AC4B3F674469BE1B2F9D3E3D0A773F2F
:101620000E2DB2BDFE659F3F7671FB3E849E4D3F01
:10163000A4709DBE1DC9A5BEE2E915BF66F724BF13
:1016400052B89E3DBADA823F3D9B053F8FE4623F30
:10165000CA54C13B857C803F30BB273F006F313F80
:10166000158CAABE26E443BE76719BBF07F0463FA9
:101670009F3CCC3E764F5E3F40A41FBEEE5A92BFC9
:1016800066888B3F615492BEB7625FBFE3A59B3F04
:101690007B831F3FA5BD413DF31F92BE29ED95BF42
:1016A000234A0B3F984C353FEA95D23E575B21BF0A
:1016B0009A9981BFE7FB813F6519E23B4694D6BE0C
:1016C00080ED000A1FED200AFE4880ED000A1FEDA4
:1016D000210AFD4880ED000A1FED230AFB4880ED3A
:1016E000000A9FEDFB0AFB4880ED000A9FEDFA0A15
:1016F000FA4880ED000A9FEDFA0AFA4880ED000AE8
:101700009FEDF90AF94880ED000A9FEDF90AF948C2
:1017100080ED000A9FEDF80AF84880ED000A9FED81
:10172000F80AF84880ED000A9FEDF70AF74880EDC7
:10173000000A9FEDF70AF74880ED000A9FEDF60AD0
:10174000F64880ED000A9FEDF60AF64880ED000AA3
:101750009FEDF50AF54880ED000A9FEDF50AF54882
:1017600080ED000A9FEDF40AF44880ED000A76E36C
:10177000F34890ED000AF1EE040A20EE200AF14849
:1017800080ED000A1FED540AEF4880ED000A1FEDBE
:10179000550AEE4880ED000A1FED570AEC4880ED2F
:1017A000000A1FED580AEB4880ED000A1FED5A0AA7
:1017B000C44880ED000A1FED5B0AC34880ED000AB3
:1017C0001FED5D0AC14880ED000A9FEDE30AC148A4
:1017D00080ED000A9FEDE10AC04880ED000A9FED10
:1017E000E00AC04880ED000A9FEDDE0ABF4880EDA8
:1017F000000A9FEDDD0ABF4880ED000A9FEDDB0A7D
:10180000BE4880ED000A9FEDDA0ABE4880ED000A6E
:101810009FEDD80ABD4880ED000A9FEDD70ABD486C
:1018200080ED000A9FEDD50ABC4880ED000A9FEDCF
:10183000D40ABC4880ED000A9FEDD20ABB4880ED77
:10184000000A9FEDD10ABB4880ED000A9FEDCF0A48
:10185000BA4880ED000A02E3B94890ED000AF1EEC3
:10186000040A20EE200AB74880ED000A1FED8E0A18
:10187000B54880ED000A1FED8F0AB44880ED000ADC
:101880001FED910AB24880ED000A1FED920AB1489F
:1018900080ED000A1FED940A8A4880ED000A1FEDD2
:1018A000950A894880ED000A1FED970A874880ED68
:1018B000000A9FEDB70A874880ED000A9FEDB50A40
:1018C000864880ED000A9FEDB40A864880ED000A44
:1018D0009FEDB20A854880ED000A9FEDB10A854868
:1018E00080ED000A9FEDAF0A844880ED000A9FED6D
:1018F000AE0A844880ED000A9FEDAC0A834880ED73
:10190000000A9FEDAB0A834880ED000A9FEDA90A0B
:10191000824880ED000A9FEDA80A824880ED000A07
:101920009FEDA60A814880ED000A9FEDA50A814837
:1019300080ED000A9FEDA30A804880ED000A8EE248
:101940007F4890ED000AF1EE040A20EE200A7D485F
:1019500080ED000A1FEDC80A7B4880ED000A1FEDEC
:10196000C90A7A4880ED000A1FEDCB0A784880ED5D
:10197000000A1FEDCC0A774880ED000A1FEDCE0A61
:10198000504880ED000A1FEDCF0A4F4880ED000A55
:101990001FEDD10A4D4880ED000A9FED8B0A4D489E
:1019A00080ED000A9FED890A4C4880ED000A9FED0A
:1019B000880A4C4880ED000A9FED860A4B4880ED6E
:1019C000000A9FED850A4B4880ED000A9FED830ACF
:1019D0004A4880ED000A9FED820A4A4880ED000ADD
:1019E0009FED800A494880ED000A9FED7F0A494833
:1019F00080ED000A9FED7D0A484880ED000A9FEDCA
:101A00007C0A484880ED000A9FED7A0A474880ED3D
:101A1000000A9FED790A474880ED000A9FED770A9A
:101A2000464880ED000A1AE2454890ED000AF1EEC2
:101A3000040A20EE200A434880ED000A9FED700A58
:101A4000414880ED000A9FED6F0A404880ED000A92
:101A50009FED6D0A3E4880ED000A9FED6C0A3D48FF
:101A600080ED000A9FED6A0A164880ED000A9FED9E
:101A7000690A154880ED000A9FED670A134880ED5A
:101A8000000A9FED660A134880ED000A9FED640A84
:101A9000124880ED000A9FED630A124880ED000AAB
:101AA0009FED610A114880ED000A9FED600A114820
:101AB00080ED000A9FED5E0A104880ED000AB9E053
:101AC000E1E00000500000205400002058000020F9
:101AD000304CB63F60000020B29D1F3F64000020E4
:101AE00070CE383F680000207446D43E6C00002061
:101AF000E9B7CFBE70000020EEEB90BF740000206D
:101B000046B6933E780000204D15843F7C000020AF
:101B100071AC8BBD80000020FCA989BF840000202F
:101B2000835159BF88000020A1F8713F8C0000202C
:101B3000CBA1A53E900000206DC5FE3C9400002086
:101B4000BC0000203C000020400000204400002099
:101B5000480000204C000020A54E603FCCEE293FFD
:101B60000681153F2E9040BF3255B03D107A36BFEA
:101B7000C3646A3E2063EE3E2EFF713F789C22BE16
:101B8000ACAD90BFE3C7283F12A59D3E917E7BBFC1
:101B90008E75913F86C9243FC217163FDD24C6BE0D
:101BA000E3A59B3C75022ABF2CD49ABCB81E453FC6
:101BB000A4DFFE3ECE1921BFFBCB7EBF986E123F45
:101BC000764F1E3F0BB506BF3EE8B13FE258273FB8
:101BD00011361C3F71AC0BBD97908FBDFBCB1EBF68
:101BE00060768FBE4A7B8B3F16FBCB3C03098ABFD6
:101BF000C5FE52BFD0D5F63EBC74733FBB278FBD28
:101C0000E2E915BF66F724BF52B89E3DBADA823FBB
:101C10003D9B053F8FE4623FCA54C13BB7625F3FC3
:101C2000D7343F3F09F9103F287E94BF27A0C93E13
:101C3000D5E76ABE9FEDFC0AFC4880ED000A9FEDE7
:101C4000FC0AFC4880ED000A9FEDFB0AFB4880ED92
:101C5000000A9FEDFB0AFB4880ED000A9FEDFA0A9F
:101C6000FA4880ED000A9FEDFA0AFA4880ED000A72
:101C70009FEDF90AF94880ED000A9FEDF90AF9484D
:101C800080ED000AEBE0F84890ED000AF1EE040A5E
:101C900020EE200AF54880ED000A1FED270AF448DF
:101CA00080ED000A1FED290AF24880ED000A1FEDC1
:101CB0002A0AF14880ED000A1FED2C0AEF4880ED5A
:101CC000000A1FED2D0AEE4800E0D9E080ED000A81
:101CD0001FED300AEB4880ED000A1FED310AEA489B
:101CE00080ED000A9FEDE90AE94880ED000A9FEDCA
:101CF000E90AE94880ED000A9FEDE80AE84880ED2E
:101D0000000A9FEDE80AE84800E034E080ED000AB0
:101D10009FEDE60AE64880ED000A9FEDE60AE648F8
:101D200080ED000A9FEDE50AC04880ED000A9FEDB6
:101D3000E40AC04880ED000A9FEDE20ABF4880ED4A
:101D4000000A9FEDE10ABF4880ED000A9FEDDF0A1F
:101D5000BE4880ED000A9FEDDE0ABE4880ED000A15
:101D60009FEDDC0ABD4880ED000A9FEDDB0ABD480F
:101D700080ED000A73E0BC4890ED000AF1EE040A21
:101D800020EE200AB94880ED000A1FED630AB8482A
:101D900080ED000A1FED650AB64880ED000A1FEDD0
:101DA000660AB54880ED000A1FED680AB34880ED69
:101DB000000A1FED690AB24880ED000A1FED6B0AA8
:101DC000B04880ED000A1FED6C0AAF4880ED000AB4
:101DD0009FEDC20AAE4880ED000A9FEDC10AAE48F1
:101DE00080ED000A9FEDBF0AAD4880ED000A9FED2F
:101DF000BE0AAD4880ED000A9FEDBC0AAC4880EDFC
:101E0000000A9FEDBB0AAC4880ED000A9FEDB90ABD
:101E1000864880ED000A9FEDB80A864880ED000AEA
:101E20009FEDB60A854880ED000A9FEDB50A85480A
:101E300080ED000A9FEDB30A844880ED000A9FED13
:101E4000B20A844880ED000A9FEDB00A834880ED15
:101E5000000A9FEDAF0A834880ED000A00BF00BF73
:101E6000AC48C078302802D0312808D103E00020E7
:101E7000A949086003E00120A749086000BF00BF2E
:101E8000A4480078472809D1A24840786F2805D196
:101E90000120A2490860A2A004F05EF99D480078E4
:101EA0004F283FD19B48807830389A49497830395B
:101EB00001EB810100EB410000EE100AF8EEC00AD0
:101EC0009FED981AB6EE000A10EE810A964880ED52
:101ED000000A9048007930388E49C978303901EBD2
:101EE000810100EB410000EE100AF8EEC00A9FED00
:101EF0008D1AB6EE000A10EE810A8C4880ED000AB9
:101F0000006803F080FF41EC180B8748006803F07D
:101F10007AFF41EC190B8DED008B53EC192B84A04B
:101F200004F01AF97B480078432835D17948407885
:101F30003038642110FB01F176488078303800EBAE
:101F4000800001EB40017348C0783038084400EE4F
:101F5000100AB8EEC00ADFED730A20EE200AB0EED8
:101F6000408AB2EE040AB4EEC08AF1EE10FA07D24B
:101F7000B5EEC08AF1EE10FA02DD764880ED008AF7
:101F80007448006803F03FFF41EC190B53EC192B28
:101F900071A004F0E1F800BF5E480078442827D122
:101FA0005C484078302805D19FED6E0A2E4880EDC0
:101FB000000A12E057484078312805D19FED6A0A9F
:101FC000294880ED000A08E052484078322804D1C0
:101FD0009FED660A244880ED000A2348006803F05C
:101FE00012FF41EC180B53EC182B61A004F0B4F86D
:101FF000484800784E2815D146484078303864214A
:1020000010FB01F143488078303800EB800001EB91
:1020100040014048C0783038084400EE100AB8EE5D
:10202000C00AB3E0C3E00000EC51D8BE7800002045
:102030003480073F7C00002058CA823F8000002087
:10204000CE1911BE8400002042CF8EBF8800002030
:1020500052495D3E8C000020575B713F900000208C
:10206000D7A388BF94000020BC0000203C000020C3
:102070004000002044000020480000204C000020C8
:102080005000002054000020580000208AB0913FEA
:10209000600000203D9B353F64000020107A063F21
:1020A000680000202AA953BF6C000020F5DBB73E72
:1020B00070000020AF2524BE74000020CA3224BF67
:1020C000CBA1553F5DDC163F053421BF31997ABF66
:1020D00083C0CA3DFA7EA23F643B1FBFD3DEB03F40
:1020E00058CA323F3CBD023FBE30F9BEB30C913EF0
:1020F0008E75F1BDAC1C5ABF431C933F4A0C023E87
:10210000B8AF8BBFC9764EBF17B7513BFC18CB3F5A
:102110007CF230BE4C0100209800002020000020FE
:102120000D0A00000AD7233CAC000020B0000020BC
:102130004F666673657420736574313A2025660AAC
:102140004F666673657420736574323A2025660D98
:102150000A000000B4000020436F65663A2025663F
:102160000D0A0000CDCC4C3DCDCCCC3DCDCC4C3E71
:10217000565F6269617320616E642044414320634D
:102180006F65663A2025660D0A0000005FED1B0AA8
:1021900020EE200A124880ED000A006803F033FEAA
:1021A00041EC180B53EC182B0EA003F0D5FF0020C8
:1021B00011490880002002F0A9FF1048007801288A
:1021C00001D10F4908600F480078022802D1002091
:1021D0000B4908600A2002F061F8FEF7F1B8000030
:1021E000B80000204E6F697365205363616C653AD7
:1021F0002025660D0A000000EC00002044010020AC
:102200009800002045010020704700BFFEE700BF96
:10221000FEE700BFFEE700BFFEE77047704770476C
:10222000704700000648804706480047FEE7FEE783
:10223000FEE7FEE7FEE7FEE7FEE7FEE7FEE7FEE776
:1022400025230008890100080CB5002001900090AA
:102250007648006840F480307449086000BF7348D5
:10226000006800F4003000900198401C0190009834
:1022700018B90198B0F5A04FF1D16C48006800F48E
:10228000003010B10120009001E000200090009883
:10229000012846D165484030006840F080506349CD
:1022A000403108606248006840F44040604908607E
:1022B0005E48083000685D490831086008460068DB
:1022C00040F4004008600846006840F4A0500860F0
:1022D0005848091F0860081F006840F08070091FF7
:1022E000086000BF5148006800F000700028F9D075
:1022F00040F20570504908604C480830006820F0F2
:1023000003004A49083108600846006840F00200AE
:10231000086000BF45480830006800F00C0008283D
:10232000F8D10CBD10B54548006840F47000434931
:1023300008603E48006840F001003C490860002009
:102340003A4908310860394800683D490840374932
:1023500008603C48091D0860081F006820F48020C0
:10236000091F0860002031490C310860FFF76CFF3D
:102370004FF0006031498039086010BD70B5002011
:102380000022022300240221284D08352D6805F083
:102390000C0020B1042806D0082834D107E02A4DCB
:1023A0002A4E356033E02A4D284E35602FE01F4D10
:1023B0002D1D2D68C5F380541C4D2D1D2D6805F075
:1023C0003F0154B1224DB5FBF1F5184E361D36686C
:1023D000C6F3881605FB06F209E01B4DB5FBF1F5C7
:1023E000124E361D3668C6F3881605FB06F20F4DF1
:1023F0002D1D2D68C5F301456D1C6B00B2FBF3F577
:10240000124E356003E0104D104E356000BF00BF26
:10241000064D08352D68C5F303150E4E705D0B4D46
:102420002D68C540094E356070BD0000003802407F
:102430000070004008544007003C024088ED00E076
:10244000FFFFF6FE103000240024F400C00000203E
:1024500000127A00C400002032490143324A116060
:10246000704770B5002100230F22C4781CB32E4C96
:10247000246804F4E064C4F5E064C4F30721C1F106
:102480000404E3B20A4144789C40E1B284781440E9
:1024900021430C07210E254C05786155047804F082
:1024A0001F050124AC4005786D11AD0005F1E02554
:1024B000C5F8004109E0047804F01F050124AC4090
:1024C0001B4D0678761145F8264070BD194A0A4022
:1024D0000243154B1B1F1A60704739B1124A121D77
:1024E00012680243104B1B1D1A6006E00E4A121DB3
:1024F000126882430C4B1B1D1A607047042808D1D8
:102500004FF0E021096941F004014FF0E022116130
:1025100007E04FF0E021096921F004014FF0E022CB
:10252000116170470000FA050CED00E000E400E0E6
:1025300080E100E080FFFF1F10B50446FE488442A2
:1025400008D10121084601F0D2F80021012001F054
:10255000CEF89DE0B4F1804F08D10121084601F08A
:10256000B5F80021012001F0B1F891E0F348844270
:1025700008D10121022001F0A9F80021022001F078
:10258000A5F885E0EE48844208D10121042001F03D
:102590009DF80021042001F099F879E0E94884428F
:1025A00008D10121082001F091F80021082001F054
:1025B0008DF86DE0E448844208D10121102001F03B
:1025C00085F80021102001F081F861E0DF488442A5
:1025D00008D10121202001F079F80021202001F00C
:1025E00075F855E0DA48844208D10121022001F053
:1025F0007EF80021022001F07AF849E0D5488442B3
:1026000009D10121080401F072F800214FF4803053
:1026100001F06DF83CE0D048844209D10121480422
:1026200001F065F800214FF4003001F060F82FE070
:10263000CA48844209D10121880401F058F80021D8
:102640004FF4802001F053F822E0C548844208D1BD
:102650000121402001F03AF80021402001F036F835
:1026600016E0C048844208D10121802001F02EF8F4
:102670000021802001F02AF80AE0BB48844207D1FB
:102680000121801501F022F80021A01501F01EF8AB
:1026900010BD00220288A84B98420ED0AC4B984245
:1026A0000BD0B0F1804F08D0A44B984205D0A44B7A
:1026B000984202D0A34B984204D14FF68F731A4030
:1026C0004B881A43A04B984207D0A04B984204D0A5
:1026D0004FF6FF431A400B891A4302804B68C362CE
:1026E0000B880385944B984202D0994B984201D1B4
:1026F0008B7A03860123838270474FF0FF3141605C
:1027000000210180018141808172704701858282B0
:1027100070470A46002101884FF68F731940114314
:102720000180704741627047C16270470146486A44
:1027300070470146088D704721B1028842F00202BD
:10274000028004E002884FF6FD731A400280704751
:1027500021B1028842F00402028004E002884FF6B0
:10276000FB731A400280704721B1028842F0800258
:10277000028004E002884FF67F731A40028070479F
:1027800002884FF6F7731A40028002880A430280DB
:10279000704702884FF6FF431A40028002880A43BE
:1027A0000280704721B1028842F00102028004E0F9
:1027B00002884FF6FE731A400280704770B50024FD
:1027C00000220023058C4FF6FE7635400584028CEE
:1027D0008388048B4FF68F752C40B51E2C400D88D6
:1027E0002C43751E2A408D892A434D882A43524D19
:1027F000A84202D0564DA84213D14FF6F7752A4091
:10280000CD892A434FF6FB752A408D882A434FF61F
:10281000FF652B404FF6FF552B400D8A2B434D8A09
:102820002B43838004838D684563028470BD70B53B
:10283000002400220023058C4FF6EF7635400584F6
:10284000028C8388048B48F6FF752C404FF6FF45B9
:102850002C400D884FF6FF7606EA05252C434FF6EF
:10286000DF752A408D8906EA05152A434D8806EA58
:1028700005152A43304DA84202D0354DA8421DD13E
:102880004FF67F752A40CD894FF6FF7606EA05158B
:102890002A434FF6BF752A408D8806EA05152A435C
:1028A0004FF6FF352B404FF2FF752B400D8A06EA9D
:1028B00085052B434D8A06EA85052B4383800483D7
:1028C0008D688563028470BD70B5002400220023EA
:1028D000058C4FF6FF6635400584028C8388848B17
:1028E0004FF68F752C404FF6FC752C400D882C430D
:1028F0004FF6FF552A408D894FF6FF7606EA0525EB
:102900002A434D8806EA05252A430B4DA84202D0EA
:102910000F4DA84238D14FF2FF752A40CD894FF6AE
:10292000FF7606EA05252A434FF6FF352A408D88B3
:1029300006EA05252A4319E0000001400004004092
:1029400000080040000C004000100040001400404F
:1029500000040140004001400044014000480140A3
:1029600000180040001C0040002000404EF6FF759B
:102970002B404DF6FF752B400D8A06EA05152B43BB
:102980004D8A06EA05152B43838084838D68C563D1
:10299000028470BD70B5002200230024058C4EF621
:1029A000FF7635400584038C8488828B48F6FF755A
:1029B0002A404FF6FF452A400D884FF6FF7606EA7B
:1029C00005252A434DF6FF752B408D8906EA05350E
:1029D0002B434D8806EA05352B43FE4DA84202D015
:1029E000FD4DA84208D14BF6FF752C400D8A4FF6DD
:1029F000FF7606EA85152C43848082838D68056402
:102A0000038470BD002101804180818081608181CB
:102A1000C18101824182704770B5034600200024C5
:102A20001846183001258D40ACB21D8CA5431D847D
:102A300009B108290AD100EB610005684FF68F76CD
:102A4000354005600568154305600FE00D1FC5F3AF
:102A50004E052844056848F6FF7635400560056850
:102A60004FF6FF7606EA02263543056070BD4163E6
:102A7000704781637047C1637047016470470A46BD
:102A80000021018B4FF68F7319401143018370476A
:102A90000A460021018B48F6FF7319404FF6FF7379
:102AA00003EA02231943018370470A460021818B00
:102AB0004FF68F7319401143818370470A460021F6
:102AC000818B48F6FF7319404FF6FF7303EA022328
:102AD0001943818370470A460021018B4FF6F77333
:102AE00019401143018370470A460021018B4FF2C0
:102AF000FF7319404FF6FF7303EA02231943018362
:102B000070470A460021818B4FF6F7731940114335
:102B1000818370470A460021818B4FF2FF73194071
:102B20004FF6FF7303EA02231943818370470A4675
:102B30000021018B4FF6FB7319401143018370474D
:102B40000A460021018B4FF6FF3319404FF6FF7301
:102B500003EA02231943018370470A460021818B4F
:102B60004FF6FB7319401143818370470A460021D9
:102B7000818B4FF6FF3319404FF6FF7303EA0223B0
:102B80001943818370470A460021018B4FF67F73FA
:102B900019401143018370470A460021018BC1F39C
:102BA0000E014FF6FF7303EA0223194301837047B6
:102BB0000A460021818B4FF67F73194011438183B0
:102BC00070470A460021818BC1F30E014FF6FF7357
:102BD00003EA02231943818370470A460021018CCE
:102BE0004FF6FD7319401143018470470A460021D6
:102BF000018C4FF6F77319401143018470470A4660
:102C00000021018C4FF6DF7319404FF6FF7303EA82
:102C100002131943018470470A460021018C4FF6C4
:102C20007F7319404FF6FF7303EA021319430184BF
:102C300070470A460021018C4FF6FF5319404FF6AA
:102C4000FF7303EA02231943018470470A460021F7
:102C5000018C4FF2FF7319404FF6FF7303EA022312
:102C60001943018470470A460021018C4DF6FF7319
:102C700019404FF6FF7303EA02331943018470478A
:102C800030B5002301248C40A3B2048C9C430484FF
:102C9000048C02FA01F5ADB22C43048430BD30B58A
:102CA000002304248C40A3B2048C9C430484048C31
:102CB00002FA01F5ADB22C43048430BD828B4FF291
:102CC000FF331A408283828B4FF6FF7303EA01239E
:102CD0001A4382837047F0B50C4615460021002246
:102CE0000026078C4EF6FF7C07EA0C070784818BD1
:102CF000028C4FF6FF7707EA043640F6FF4739406B
:102D00004FF6FF7707EA052739434FF6FF7707EAC3
:102D10000337394345F6FF773A4046F480573A4344
:102D200081830284F0BD828B4FF6F3731A40828355
:102D3000828B0A4382837047F0B50C46154600210A
:102D400000220026078C4FF6FF6C07EA0C07078469
:102D5000818B028C4FF6FF7707EA04264FF60C773B
:102D600039404FF6FF7707EA03172F4339434FF2F5
:102D7000FF573A4046F480773A4381830284F0BD9E
:102D8000028B4FF2FF331A400283028B4FF6FF7320
:102D900003EA01231A4302837047F0B50C46154637
:102DA000002100220026078C4FF6EF7C07EA0C0773
:102DB0000784018B028C4FF6FF7707EA041640F672
:102DC000FF4739404FF6FF7707EA033739434FF69D
:102DD000FF7703E0000001400004014007EA0527F7
:102DE00039434FF65F773A4046F010073A43018384
:102DF0000284F0BD028B4FF6F3731A400283028BFC
:102E00000A4302837047F0B50C46154600210022A4
:102E1000068C4FF6FE773E400684018B028C4FF6FF
:102E20000C7631407E1C06EA03162E4331434FF6E2
:102E3000F576324044F00106324301830284F0BD4E
:102E400070B505460C46208850B92389A288618850
:102E50002846FFF7D8FFE1882846FFF7CBFF25E09B
:102E6000208804280AD12389A28861882846FFF790
:102E700094FFE1882846FFF783FF17E020880828A1
:102E80000AD12389A28861882846FFF755FFE18887
:102E90002846FFF748FF09E02389A2886188284671
:102EA000FFF719FFE1882846FFF708FF70BD0021F2
:102EB00001804180012181800021C1800181704712
:102EC0002DE9F04105460C4600260127608808B927
:102ED000022600E00026A088012801D1022700E098
:102EE00001272088A0B92389A28861882846FFF796
:102EF0008AFFE1882846FFF77DFF23893A4631465D
:102F00002846FFF74AFFE1882846FFF739FF13E01C
:102F10002389A28861882846FFF73FFFE188284679
:102F2000FFF72EFF23893A4631462846FFF76BFF0D
:102F3000E1882846FFF75EFFBDE8F0810146486B57
:102F400070470146886B70470146C86B7047014661
:102F5000086C70470A884B881A438B881A43CB88C1
:102F60001A430B891A434B891A438B891A43A0F8D9
:102F7000442070470021018041808180C18001810F
:102F800041818181704731B1B0F8442042F4004260
:102F9000A0F8442005E0B0F84420C2F30E02A0F8E7
:102FA0004420704721B1828842F00402828004E00C
:102FB00082884FF6FB731A408280704721B1828865
:102FC00042F00102828004E082884FF6FE731A40CC
:102FD000828070471AB183890B43838102E0838921
:102FE0008B43838170478182704702460020138A99
:102FF0000B400BB1012000E000207047CA43028261
:10300000704730B50246002000230024158A05EAE7
:103010000103958905EA010413B10CB1012000E018
:10302000002030BDCA430282704741EA0203A0F883
:10303000483070471AB183890B43838102E083894A
:103040008B438381704721B1828842F008028280DD
:1030500004E082884FF6F7731A4082807047018936
:103060004FF6F8721140018170470A46002101892C
:103070004FF68F73194011430181704730B50446F4
:103080000D4629462046FFF7F0FF208940F0070053
:10309000208130BD2DE9F04104460D4616461F46FD
:1030A000602D06D13B46012231462046FFF775FED2
:1030B00005E03B46012231462046FFF7A4FE2946A3
:1030C0002046FFF7D2FF208940F007002081BDE8AD
:1030D000F08130B50C4600210189C9B24FF6FF7569
:1030E00005EA0325154325432943018130BD2DE918
:1030F000F04105460E4617469846002443463A4698
:1031000031462846FFF7E5FF2C894FF6F87004405A
:1031100044F007044FF68F70044044F070042C8193
:10312000BDE8F081F0B504460D4616461F463B4605
:10313000324629462046FFF7CCFF208940F48040E4
:103140002081F0BD82884FF68F731A40828082887A
:103150000A438280704702894FF6F8731A40028151
:1031600002890A430281704702894FF67F731A4031
:10317000028102890A4302817047F0B50C46154668
:103180001E460021002200230189028B038C4FF68A
:10319000F877394021434FF6FC473A4040F2011797
:1031A0003A434FF6DD773B404FF6FF7707EA0617C5
:1031B0002F433B43018102830384F0BD21B1828808
:1031C00042F08002828004E082884FF67F731A40CA
:1031D00082807047A0F8501070470000F9480068DE
:1031E00040F00100F74908600020F6490831086006
:1031F000F4480068F4490840F2490860F348091DA2
:103200000860F348EF4984310860F0481038091D20
:103210000860EC48006820F48020EA49086000203B
:10322000E8490C310860E7498C310860704700219B
:10323000E44A921C117011460870704710B501469F
:103240000022002300204A11012A02D1DD4C23680C
:1032500008E0022A03D1DB4C7034236802E0D94C29
:103260007434236801F01F02012494401C400CB107
:10327000012000E0002010BD38B50020009000249F
:10328000002500BF3120FFF7D9FF05460098401CFC
:1032900000900098B0F5A04F01D0002DF2D0312061
:1032A000FFF7CCFF08B1012400E00024204638BD20
:1032B00001460020C34A106820F0F80040EAC1002F
:1032C00010607047C349086070470021BD4A7032E2
:1032D00011701170012802D004280AD104E00121E4
:1032E000B84A7032117005E00521B64A703211708B
:1032F00000E000BF00BF7047B7490860704770B575
:10330000049C41EA82150126C6EB530645EA0645B0
:10331000054345EA0465AB4E361D356070BDAD49C9
:1033200008667047820142EA0172A64B84331A6034
:103330007047A8498866704710B5830143EA016366
:1033400043EA02739F4C8834236010BDA14908678B
:103350007047A049C864704702460020994B083363
:10336000186820F0EC6042EA01031843954B0833DB
:103370001860704702460020924B0833186820F00E
:10338000784042EA010318438E4B083318607047B7
:10339000014600208B4A0832106820F003000843E1
:1033A0001060704787480830006800F00C007047D4
:1033B00001460020834A0832106820F0F0000843DC
:1033C00010607047014600207E4A0832106820F4E1
:1033D000E05008431060704701460020794A0832E7
:1033E000106820F4604040EAC10010607047F0B5FA
:1033F000002100220024022500260223714F0837F5
:103400003F6807F00C0121B1042905D0082937D104
:1034100005E0724F076036E0714F076033E0694F97
:103420003F1D3F68C7F38056664F3F1D3F6807F05A
:103430003F036EB16A4FB7FBF3F7DFF888C10CF1B9
:10344000040CDCF800C0CCF3881C07FB0CF40CE087
:10345000624FB7FBF3F7DFF86CC10CF1040CDCF83A
:1034600000C0CCF3881C07FB0CF4564F3F1D3F688F
:10347000C7F301477F1C7D00B4FBF5F7076002E04E
:10348000564F076000BF00BF4E4F08373F6807F038
:10349000F0010909534F7A5C0768D7404760494FEC
:1034A00008373F6807F4E051890A4E4F7A5C476855
:1034B000D7408760434F08373F6807F46041490BA6
:1034C000484F7A5C4768D740C760F0BD002100F4E0
:1034D0004072B2F5407F0AD13A4A0832116821F4AD
:1034E000F811414A02401143364A08321160354A08
:1034F00070321268C0F30B031A43324B70331A60F8
:10350000704735494439086070473349403908608D
:10351000704736490860704701460020294A8C32BE
:10352000106820F01F004A1E1043264A8C3210609B
:10353000704701460020234A8C32106820F4F8506E
:103540004A1E40EA02201F4A8C3210607047014632
:1035500000201C4A8C32106820F440100843106090
:10356000704701460020174A8C32106820F4400052
:1035700008431060704701460020124A8C321068E0
:1035800020F44030084310607047194908607047C4
:1035900039B10C4A3032126802430A4B30331A6098
:1035A00006E0084A303212688243064B30331A6014
:1035B0007047F9B1034A343212680243014B343385
:1035C0001A601CE000380240FFFFF6EA10300024C9
:1035D0000030002000004742800E47420024F400E3
:1035E00000127A00D4000020FFFCFF0F5C0147426C
:1035F000E01147428F4A126882438E4B1A6070472F
:1036000039B18C4A121D126802438A4B1B1D1A6085
:1036100006E0884A121D12688243864B1B1D1A6001
:10362000704739B1834A0C3212680243814B0C3324
:103630001A6006E07F4A0C32126882437D4B0C33DD
:103640001A60704739B17B4A103212680243794BD5
:1036500010331A6006E0774A103212688243754BC5
:1036600010331A60704739B1724A243A1268024323
:10367000704B243B1A6006E06E4A243A126882437B
:103680006C4B243B1A60704739B16A4A203A126881
:103690000243684B203B1A6006E0664A203A1268F3
:1036A0008243644B203B1A60704739B1614A1C3A2F
:1036B000126802435F4B1C3B1A6006E05D4A1C3AED
:1036C000126882435B4B1C3B1A60704739B1594A00
:1036D000143A12680243574B143B1A6006E0554AED
:1036E000143A12688243534B143B1A60704739B145
:1036F000504A103A126802434E4B103B1A6006E0E3
:103700004C4A103A126882434A4B103B1A60704789
:1037100039B1484A1C3212680243464B1C331A60C6
:1037200006E0444A1C3212688243424B1C331A6042
:10373000704739B13F4A2032126802433D4B203373
:103740001A6006E03B4A203212688243394B20332C
:103750001A60704739B1374A243212680243354B38
:1037600024331A6006E0334A243212688243314B14
:1037700024331A60704739B12E4A2C321268024342
:103780002C4B2C331A6006E02A4A2C3212688243F2
:10379000284B2C331A60704739B1264A30321268F0
:1037A0000243244B30331A6006E0224A303212685A
:1037B0008243204B30331A607047012808D11D49DD
:1037C0003C31096841F008011A4A3C32116007E0B7
:1037D00018493C31096821F00801164A3C32116051
:1037E000704739B1134A273A12780243114B273BED
:1037F0001A7006E00F4A273A127882430D4B273B96
:103800001A7070470B484030006840F080700949DA
:1038100040310860704701460020064A283A126885
:103820000A400AB1012000E0002070470149263912
:10383000087070473438024010B5044698488442F6
:1038400008D101210846FFF70EFF00210120FFF7F4
:103850000AFF76E09348844208D101210220FFF755
:1038600002FF00210220FFF7FEFE6AE08E4884423C
:1038700008D101210420FFF7F6FE00210420FFF704
:10388000F2FE5EE08948844208D101210820FFF75A
:10389000EAFE00210820FFF7E6FE52E08448844259
:1038A00008D101211020FFF7DEFE00211020FFF7D4
:1038B000DAFE46E07F48844208D101212020FFF74C
:1038C000D2FE00212020FFF7CEFE3AE07A48844263
:1038D00008D101214020FFF7C6FE00214020FFF75C
:1038E000C2FE2EE07548844208D101218020FFF7F6
:1038F000BAFE00218020FFF7B6FE22E07048844225
:1039000008D101218015FFF7AEFE0021A015FFF7B9
:10391000AAFE16E06B48844208D101214015FFF74A
:10392000A2FE00216015FFF79EFE0AE06648844271
:1039300007D101210015FFF796FE00212015FFF7A2
:1039400092FE10BDF0B50A4600210023002400BFFE
:103950003DE0012505FA01F3156805EA03049C42E0
:1039600034D105684F000326BE40B5430560157984
:103970004E00B5400668354305601579012D02D02B
:103980001579022D16D185684F000326BE40B54338
:10399000856055794E00B540866835438560456839
:1039A00001268E40B5434560456896798E40B6B293
:1039B00035434560C5684F000326BE40B543C5602A
:1039C000D5794E00B540C6683543C560491C1029FD
:1039D000BFD3F0BD4FF6FF7101600021017141714D
:1039E0008171C171704708B54FF480320092009A1E
:1039F0000A430092009AC261C161009AC261C26921
:103A00000092C269009208BD0246002013690B4073
:103A10000BB1012000E0002070470146086980B228
:103A200070470246002053690B400BB1012000E0B3
:103A3000002070470146486980B270470183704793
:103A4000418370470AB1018300E0418370474161BF
:103A5000704742694A4042617047F0B50023002434
:103A60004D07ED0E02FA05F3CE1000F1200555F8D2
:103A700026504E07F70E0F26BE40B543CF1000F17B
:103A8000200646F82750CE1000F1200555F82650A4
:103A900045EA0304CE1000F1200545F82640F0BDAC
:103AA000000002400004024000080240000C0240F6
:103AB000001002400014024000180240001C0240A6
:103AC00000200240002402400028024010B50446B5
:103AD000FA48844208D101211020FFF708FE002196
:103AE0001020FFF704FE57E0F548844209D1012178
:103AF0004804FFF7EBFD00214FF40030FFF7E6FD2F
:103B00004AE0F048844209D101218804FFF7DEFD34
:103B100000214FF48020FFF7D9FD3DE0EA488442C0
:103B200009D10121C804FFF7D1FD00214FF4002085
:103B3000FFF7CCFD30E0E548844209D101210805BA
:103B4000FFF7C4FD00214FF48010FFF7BFFD23E015
:103B5000DF48844208D101212020FFF7C8FD002161
:103B60002020FFF7C4FD17E0DA48844209D1012183
:103B70008807FFF7ABFD00214FF08040FFF7A6FD5F
:103B80000AE0D548844207D101214005FFF79EFD98
:103B900000216005FFF79AFD10BD2DE9FF4705469E
:103BA0000E460024A14600BFA046B08900B100BF68
:103BB0002C8A24F44054F08804432C82AC8941F2CE
:103BC0000C608443B08831890843718908430443F9
:103BD000AC81AC8A24F44074B0890443AC8268465A
:103BE000FFF705FCB548854202D0B948854202D1AD
:103BF000DDF80C9001E0DDF80890A88900F40040A1
:103C000040B109EBC90000EB091031684900B0FB75
:103C1000F1F707E009EBC90000EB091031688900F2
:103C2000B0FBF1F76420B7FBF0F004012009642138
:103C300001FB1078A88900F4004040B1322000EB6D
:103C4000C800B0FBF1F000F00700044308E03220A8
:103C500000EB08106421B0FBF1F000F00F0004430A
:103C60002C81BDE8FF874FF416510160002181804F
:103C7000C18001810C21418100218181704710B5F3
:103C800002460020108A20F470600B884C88234381
:103C90008C882343CC8823431843108210BD002115
:103CA000018041808180C180704721B1828942F4C6
:103CB0000052828104E082894DF6FF731A408281AE
:103CC0007047028B02F47F420283028B0A43028315
:103CD000704721B1828942F40042828103E08289E7
:103CE000C2F30E028281704721B1828A42F40062DF
:103CF000828204E0828A4FF2FF731A408282704708
:103D0000C1F308028280704701468888C0F308002A
:103D10007047028A4FF6F0731A400282028A0A4301
:103D20000282704721B1828942F00202828104E05E
:103D300082894FF6FD731A408281704782894FF263
:103D4000FF731A40828182890A4382817047028A06
:103D50004FF6DF731A400282028A0A4302827047DA
:103D600021B1028A42F48042028204E0028A4BF6C8
:103D7000FF731A4002827047818941F001018181FD
:103D8000704721B1828A42F00802828204E0828A6E
:103D90004FF6F7731A4082827047028BD2B20283C9
:103DA000028B42EA01220283704721B1828A42F0EB
:103DB0002002828204E0828A4FF6DF731A408282F8
:103DC000704721B1828A42F01002828204E0828A26
:103DD0004FF6EF731A4082827047828A4FF6FB7368
:103DE0001A408282828A0A438282704721B1828A83
:103DF00042F00202828204E0828A4FF6FD731A408A
:103E0000828270471AB1838A0B43838202E0838ADD
:103E10008B4383827047F0B50346002400260025BB
:103E2000002040F66A17B94200D100BF1846C1F31E
:103E3000421401F01F06012707FA06F5012C01D1F3
:103E40000C3004E0022C01D1103000E014301AB123
:103E500007682F43076002E00768AF430760F0BDC3
:103E600002460020B1F5007F00D100BF13880B404F
:103E70000BB1012000E00020704701F40072B2F5A0
:103E8000007F00D100BFCA430280704770B5024670
:103E9000002400230025002040F66A16B14200D11C
:103EA00000BFC1F3421501F01F03012606FA03F318
:103EB000012D13D19689334017E000000010014016
:103EC0000044004000480040004C004000500040CA
:103ED0000014014000780040007C0040022D02D117
:103EE000168A334001E0968A33400C12012606FA06
:103EF00004F41688344013B10CB1012000E0002016
:103F000070BD10B50022002340F66A14A14200D112
:103F100000BF0A1201249440A3B2DC43048010BD08
:103F200010B501214020FFF7AFFB00214020FFF733
:103F3000ABFB10BD30B12149096841F004011F4AB3
:103F4000116005E01D49096821F004011B4A116058
:103F500070471A4808300068704730B1174909683F
:103F600041F00801154A116005E01449096821F083
:103F70000801124A11607047014600200F4A121DC5
:103F800012680A400AB1012000E0002070476FEA81
:103F900000110A4A121D1160704701460020074AAD
:103FA000121D12680A400AB1012000E0002070478B
:103FB000C143C9B2014A121D116070470008065082
:103FC0000A460021DBE0D30B002B75D0102971D2FB
:103FD000DFE801F0080F161D242B323940464C5201
:103FE000585E646A038823F4004303F500430380AA
:103FF00060E0038823F4804303F58043038059E0A5
:10400000038823F4005303F50053038052E0038830
:1040100023F4805303F5805303804BE0038823F49B
:10402000006303F50063038044E0038823F48063A6
:1040300003F5806303803DE0038823F4007303F5F8
:104040000073038036E0038823F4807303F58073E4
:1040500003802FE0038823F080038033038029E06E
:10406000038823F040034033038023E0038823F0D8
:104070002003203303801DE0038823F01003103356
:10408000038017E0038823F008030833038011E05E
:10409000038823F004031B1D03800BE0038823F037
:1040A00002039B1C038005E0038823F001035B1CD3
:1040B000038000BF5DE0FFE7102959D2DFE801F07F
:1040C000080D12171C21262B30353A3F44494E5318
:1040D000038823F4004303804AE0038823F48043E9
:1040E000038045E0038823F40053038040E0038805
:1040F00023F4805303803BE0038823F400630380B0
:1041000036E0038823F48063038031E0038823F4DE
:10411000007303802CE0038823F48073038027E07E
:10412000038823F08003038022E0038823F0400308
:1041300003801DE0038823F02003038018E0038838
:1041400023F01003038013E0038823F008030380A7
:104150000EE0038823F00403038009E0038823F0C2
:104160000203038004E0038823F00103038000BFFF
:1041700000BF4FF6FF7303EA42024B1CD9B210296D
:10418000FFF621AF7047F0B51C460026002501233D
:10419000C1F11007974202DAC1F11007FAB20E46D8
:1041A000002E0CDD05E0EF18BDB24FF6FF7707EAF1
:1041B00043033700A6F1010C0CF0FF06F3D1D0F851
:1041C00014C04FF6FF7797408F402F430CEA070C3F
:1041D000C0F814C0476904FA01FC47EA0C074761BC
:1041E000F0BD10B56FF00400FEF788F915203949CD
:1041F00008700846007800EB4001C1EBC0104FF694
:10420000FF7101EAC0003449088010BD0146314AFF
:1042100012784A434FF0E0235A6100229A611A460D
:10422000126942F001021A6100BF4FF0E0221069EA
:1042300000F001021AB100F48032002AF5D04FF0EC
:10424000E022126922F001024FF0E0231A610022FD
:104250009A6170470146204A12884A434FF0E02392
:104260005A6100229A611A46126942F001021A61EB
:1042700000BF4FF0E022106900F001021AB100F413
:104280008032002AF5D04FF0E022126922F00102BC
:104290004FF0E0231A6100229A61704770B504461E
:1042A0004FF4077094FBF0F0C6B24FF4077094FB24
:1042B000F0F100FB114085B205E04FF40770FFF705
:1042C000C9FF701EC6B2002EF7D115B12846FFF700
:1042D000C1FF70BDE4000020E6000020014600BFE1
:1042E000704700BF4E4A128802F04002002AF9D0FF
:1042F000C2B24B4B9A80704710B588B0044601217A
:104300000846FFF745F901211020FFF79BF9072226
:1043100009214448FFF7A1FB07220A214148FFF782
:104320009CFB4FF4C060069002208DF81C008DF8B5
:104330001D0000208DF81E0001208DF81F0006A929
:104340003848FFF7FFFA02940020ADF80C00ADF8F2
:104350000E00ADF81000ADF814000C20ADF81200FE
:1043600002A92F48FFF719FC01212D48FFF79DFCFA
:1043700040212B48FFF781FD012240F225512848BA
:10438000FFF749FD25208DF8040003208DF8050076
:104390008DF8060001208DF8070001A8FEF761F8EE
:1043A00008B010BD10B540F225511D48FFF76EFD55
:1043B00010B31B48FFF7A8FCC4B21B48008800F4E8
:1043C0000040C8B91848008800F4804060B10A2C49
:1043D00003D000201449088020E01348008840F4EE
:1043E00000401149088019E00D2C06D10E480088C4
:1043F00040F480400C49088010E00B480088C0F36E
:104400000D000A490C5408480088401C06490880E1
:1044100008460088C72801DD0020088010BD000084
:104420000010014000000240EC0000204C01002080
:104430007FB505460C4601210220FFF7F2F80295F0
:10444000ADF804400020ADF80600ADF80C0001A95D
:10445000FE48FEF71EF901221146FC48FEF7BAFDA0
:104460000121FA48FEF79EF91D208DF80000012079
:104470008DF8010003208DF8020001208DF8030063
:104480006846FDF7EEFF7FBD10B52DED0A8B0121CB
:10449000EE48FEF7B6FD01287ED1ED480068401CCD
:1044A000EB49086008460068EA49884202DB0020C0
:1044B000E7490860E848006801280DD10020E64976
:1044C0000860E3480068B0F57A7F05DD0120E34924
:1044D00008600020DE490860E0480068012816D125
:1044E0000020DE4908600120DD490860DD49C1F88F
:1044F00088026420FFF78AFE0120DB490860DB495F
:104500000860D749091D0860D649C1F88C02D64811
:104510000068012804D19FEDD60AD64880ED000A34
:10452000D24800680128B7D10020CF490860D1489F
:1045300090ED000ADFEDD00AB4EEE00AF1EE10FAD9
:1045400068DD9FEDCB0A80ED000A9FEDC90ACB48DC
:1045500080ED000A9FEDC60AC94880ED000A9FED74
:10456000C40AC84880ED000A9FEDC10AC64880ED24
:10457000000A9FEDBF0AC54880ED000A9FEDBC0A06
:10458000C34880ED000A9FEDBA0AC24880ED000AD8
:104590009FEDB70AC04800E0B5E380ED000A9FED4B
:1045A000B40ABE4880ED000A9FEDB10ABC4880ED18
:1045B000000A9FEDAF0ABB4880ED000A9FEDAC0AF0
:1045C000B94880ED000A9FEDAA0AB84880ED000ABC
:1045D0009FEDA70AB64880ED000A9FEDA50AB548F1
:1045E00080ED000A9FEDA20AB34880ED000A00208A
:1045F0009E4908609A49091D08609A49C1F88C02D1
:104600006420FFF703FE0020954908609549C1F832
:1046100088025DE2974890ED000AF7EE000A70EE1E
:10462000C00AA64890ED001AA54890ED000A00EED9
:10463000810AFDEE000A20EE200A904880ED000A73
:104640008C4890ED000AF7EE000A70EEC00A9B4815
:1046500090ED001A9A4890ED000A00EE810AF6EEFD
:10466000000A20EE200A9748D0ED000A20EE200A2A
:10467000834880ED000A9448D0ED000A9FED931A1C
:1046800060EE810A7B4890ED001AF7EE001A31EED9
:10469000C11A60EE810AB0EE600A01F0E1F98C48BF
:1046A000D0ED000A30EE200A8A48D0ED000A20EE54
:1046B000200A744880ED000A8748D0ED000A9FED7B
:1046C000831A60EE810A6B4890ED001AF7EE001A2B
:1046D00031EEC11A60EE810AB0EE600A01F0C0F955
:1046E0007E48D0ED000A30EE200A7A48D0ED000A6C
:1046F00020EE200A644880ED000A7948D0ED000AD7
:104700009FED721A60EE810A5A4890ED001AF7EE9A
:10471000001A31EEC11A60EE810AB0EE600A01F0B3
:104720009FF97048D0ED000A30EE200A6948D0EDBC
:10473000000A20EE200A554880ED000A6A48D0EDB4
:10474000000A9FED621A60EE810A4A4890ED001A55
:10475000F7EE001A31EEC11A60EE810AB0EE600A7F
:1047600001F07EF96148D0ED000A30EE200A594888
:10477000D0ED000A20EE200A454880ED000A5C4892
:10478000D0ED000A9FED511A60EE810A394890ED94
:10479000001AF7EE001A31EEC11A60EE810AB0EE8F
:1047A000600A01F05DF95348D0ED000A30EE200AAE
:1047B0004848D0ED000A20EE200A364880ED000A75
:1047C0004D48D0ED000A9FED411A60EE810A29485C
:1047D00090ED001AF7EE001A31EEC11A60EE810A70
:1047E000B0EE600A01F03CF94448D0ED000A30EE2A
:1047F000200A3848D0ED000A20EE200A264880ED35
:10480000000A3F48D0ED000A9FED301A60EE810AA1
:10481000184890ED001AF7EE001A31EEC11A60EE5A
:10482000810AB0EE600A01F01BF93648D0ED000AAB
:1048300030EE200A2748D0ED000A20EE200A174863
:1048400080ED000A2048D0ED000A5DE00004004041
:104850003C010020C0D401002000002040010020C5
:1048600090024342000043422C0000202800002018
:1048700000000000F00000209A99993FF800002005
:10488000F4000020FC0000200001002004010020B2
:10489000080100200C01002010010020140100205C
:1048A000180100201C01002020010020240100200C
:1048B000280100202C0100203001002038000020B9
:1048C00034000020B400002040000020DB0FC9406D
:1048D000600000203C000020440000206400002014
:1048E00048000020680000204C0000206C000020E0
:1048F00050000020700000205400002074000020B0
:1049000058000020780000201FED101A60EE810A88
:10491000FD4890ED001AF7EE001A31EEC11A60EE74
:10492000810AB0EE600A01F05FF8F848D0ED000AA5
:1049300030EE200AF648D0ED000A20EE200AF548B5
:1049400080ED000AF448D0ED000A1FED201A60EE59
:10495000810AED4890ED001AF7EE001A31EEC11A07
:1049600060EE810AB0EE600A01F03EF8EB48D0ED4F
:10497000000A30EE200AE648D0ED000A20EE200AB8
:10498000E74880ED000AE748D0ED000A1FED311A34
:1049900060EE810ADC4890ED001AF7EE001A31EE65
:1049A000C11A60EE810AB0EE600A01F01DF8DE481F
:1049B000D0ED000A30EE200AD548D0ED000A20EEF6
:1049C000200ADA4880ED000AD948D0ED000A1FED30
:1049D000411A60EE810ACC4890ED001AF7EE001AF9
:1049E00031EEC11A60EE810AB0EE600A00F0FCFF01
:1049F000D048D0ED000A30EE200AC548D0ED000ABC
:104A000020EE200ACC4880ED000ACC48D0ED000A08
:104A10001FED521A60EE810ABB4890ED001AF7EEC6
:104A2000001A31EEC11A60EE810AB0EE600A00F0A1
:104A3000DBFFC348D0ED000A30EE200AB448D0EDC9
:104A4000000A20EE200ABF4880ED000ABE48D0EDE3
:104A5000000A1FED621A60EE810AAB4890ED001A61
:104A6000F7EE001A31EEC11A60EE810AB0EE600A6C
:104A700000F0BAFFB548D0ED000A30EE200AA44895
:104A8000D0ED000A20EE200AB14880ED000AB148BE
:104A9000D0ED000A1FED731A60EE810A9A4890ED7E
:104AA000001AF7EE001A31EEC11A60EE810AB0EE7C
:104AB000600A00F099FFA848D0ED000A30EE200A05
:104AC0009348D0ED000A20EE200AA44880ED000AA9
:104AD0008D4890ED000ADFEDA20A30EE200A80ED4D
:104AE000000AA04991ED000AF7EE000A30EE200A14
:104AF000DFED9D0A20EE200ABCEEC00A10EE101A6F
:104B000088B2092100F048FE984991ED000AF7EEBD
:104B1000000A30EE200ADFED940A20EE200ABCEEF7
:104B2000C00A10EE101A88B2092100F07BFE9049ED
:104B300091ED000AF7EE000A30EE200ADFED8A0A56
:104B400020EE200ABCEEC00A10EE101A88B2012135
:104B500000F022FE874991ED000AF7EE000A30EEE0
:104B6000200ADFED810A20EE200ABCEEC00A10EE1A
:104B7000101A88B2012100F055FE7F4991ED000A1C
:104B8000F7EE000A30EE200ADFED770A20EE200A69
:104B9000BCEEC00A10EE101A88B2012100F08DFEA2
:104BA000764991ED000AF7EE000A30EE200ADFEDBB
:104BB0006E0A20EE200ABCEEC00A10EE101A88B26F
:104BC000012100F0C5FE6E4991ED000AF7EE000AE2
:104BD00030EE200ADFED640A20EE200ABCEEC00AA7
:104BE00010EE101A88B2022100F0D6FD654991ED51
:104BF000000AF7EE000A30EE200ADFED5B0A20EE35
:104C0000200ABCEEC00A10EE101A88B2022100F091
:104C100009FE5D4991ED000AF7EE000A30EE200A28
:104C2000DFED510A20EE200ABCEEC00A10EE101A89
:104C300088B2022100F041FE364991ED000AF7EEFC
:104C4000000A30EE200ADFED480A20EE200ABCEE12
:104C5000C00A10EE101A88B2022100F079FE304925
:104C600091ED000AF7EE000A30EE200ADFED3E0A71
:104C700020EE200ABCEEC00A10EE101A88B2032102
:104C800000F08AFD294991ED000AF7EE000A30EEA6
:104C9000200ADFED350A20EE200ABCEEC00A10EE35
:104CA000101A88B2032100F0BDFD234991ED000ADE
:104CB000F7EE000A30EE200ADFED2B0A20EE200A84
:104CC000BCEEC00A10EE101A88B2032100F0F5FD08
:104CD0001C4991ED000AF7EE000A30EE200ADFEDE4
:104CE000220A20EE200ABCEEC00A10EE101A88B28A
:104CF000032100F02DFE164991ED000AF7EE000A9F
:104D000030EE200A42E031E1F00000207C0000207B
:104D10003C000020180100204400002080000020FA
:104D20001C010020480000208400002020010020F9
:104D30004C000020880000202401002050000020AA
:104D40008C0000202801002054000020900000204A
:104D50002C01002058000020940000203001002089
:104D60000AD7A33BF400002000000045F800002013
:104D7000FC000020000100200401002008010020A8
:104D80000C01002010010020140100205FED0A0A30
:104D900020EE200ABCEEC00A10EE101A88B20421E0
:104DA00000F0FAFC754991ED000AF7EE000A30EECA
:104DB000200A5FED130A20EE200ABCEEC00A10EEB6
:104DC000101A88B2042100F02DFD6D4800680128FA
:104DD0007DD16C48006801F016F841EC190B6A4867
:104DE00090ED000AF7EE000A70EEC00A674890EDF9
:104DF000001A674890ED000A00EE810A10EE101AC2
:104E0000084601F000F841EC1B0B6248D0ED000AA7
:104E10009FED610A00F09CFAB0EE40CAF0EE60CA65
:104E200053EC1B2B51EC1C0B00F0FBFE41EC1A0B5E
:104E300053EC192B00F04EFE41EC180B00F0F6FF7E
:104E4000564908605648006800F0DDFF41EC190B38
:104E50004D4890ED000AF7EE000A70EEC00A4B488C
:104E600090ED001A4A4890ED000A00EE810A10EE1B
:104E7000101A084600F0C7FF41EC1B0B4548D0ED67
:104E8000000A9FED450A00F063FAB0EE40CAF0EE6A
:104E900060CA53EC1B2B51EC1C0B00F0C2FE41EC22
:104EA0001A0B53EC192B00F015FE41EC180B00F017
:104EB000BDFF3C490860394991ED000AF7EE000A50
:104EC00030EE200A5FED580A20EE200A00E01BE0D9
:104ED000BCEEC00A10EE101A88B2092100F0EDFCF9
:104EE000304991ED000AF7EE000A30EE200A5FED3E
:104EF000620A20EE200ABCEEC00A10EE101A88B238
:104F0000092100F025FD31E01E4890ED000A2348FC
:104F100080ED000A224890ED000A224880ED000A48
:104F20001E4991ED000AF7EE000A30EE200A5FED0F
:104F3000720A20EE200ABCEEC00A10EE101A88B2E7
:104F4000092100F0BAFC174991ED000AF7EE000ABA
:104F500030EE200A5FED7C0A20EE200ABCEEC00A8B
:104F600010EE101A88B2092100F0F2FC01210E485F
:104F7000FEF758F8BDEC0A8B10BD00003001002090
:104F800098000020AC000020F00000203800002035
:104F900034000020B8000020000000009C00002029
:104FA000B0000020A00000200004004000B58DB03B
:104FB00001210846FEF7ECFA41F6FF100B900120A4
:104FC0008DF8300000208DF8320003208DF831007C
:104FD00001208DF833000BA93B48FEF7B3FC0121FB
:104FE0000420FEF7D5FA43F6FF70079001208DF8F4
:104FF000200000208DF8220003208DF821000120E0
:105000008DF8230007A93148FEF79CFC01214020C0
:10501000FEF7BEFA41F67C60019001208DF8080091
:1050200000208DF80A0003208DF8090001208DF87A
:105030000B0001A92648FEF785FC01210220FEF79E
:10504000A7FA43F6FF70099001208DF82800002090
:105050008DF82A0003208DF8290001208DF82B00FF
:1050600009A91C48FEF76EFC01211020FEF790FAFA
:105070004FF6FF70059001208DF8180000208DF884
:105080001A0003208DF8190001208DF81B0005A9D6
:105090001148FEF757FC01212020FEF779FA4EF661
:1050A0003F00039001208DF8100000208DF81200C1
:1050B00003208DF8110001208DF8130003A9074883
:1050C000FEF740FC0DB000BD0000024000080240A9
:1050D0000018024000040240001002400014024088
:1050E0001CB501212020FEF753FA4FF47070009098
:1050F00000208DF8040003208DF8050001208DF8B4
:10510000070069462D48FEF71DFC1CBD00212C4AF6
:1051100011702C49096861B12A49091D096841B11A
:1051200028490831096821B126490C31096800294C
:1051300034D12449096819B90121234A11700EE0BC
:105140002049091D096819B902211F4A117006E09A
:105150001C490831096811B903211B4A11701A4909
:1051600009781A4A1278914210D119490988491CC4
:10517000174A118014490978164A1170E8B9144980
:105180000988012919DD0021117016E00021104A5B
:1051900011800D4909780D4A11700EE00C490988FB
:1051A000022903DD08490978054A11700021074AE0
:1051B0001170074A1180074A1170704700140240AD
:1051C0004501002018824242480100204901002088
:1051D000460100204401002010B500240121402098
:1051E000FEF7E7F90120FEF7A5FE04E0601C84B29B
:1051F0006420FFF70BF80120FEF7BEFE18B942F25B
:1052000010708442F2DB42F21070844201DB012014
:1052100010BD0020FCE710B500BF0120FEF7ACFE7A
:105220000028FAD0FEF795FE10BD70B504460D4675
:10523000FFF7F1FF291B491CB0FBF1F201FB120043
:10524000204470BD10B52DED0A8BB0EE408AF0EE13
:10525000608AB0EE419AF0EE619A0446206800EB55
:105260004001C1EBC020401C20602068C11700EB4A
:1052700011310915A0EB01512160206800F0B2FD49
:105280009FED4D0B53EC102B00F03DFD41EC1A0B44
:1052900053EC192B51EC180B00F0C0FC53EC1A2BFB
:1052A00000F0BFFC53EC182B00F014FC41EC1A0B7F
:1052B000B0EE4A0AF0EE6A0ABDEC0A8B10BD70B57A
:1052C0002DED0A8BB0EE409AF0EE609AB0EE41AA56
:1052D000F0EE61AA05469FED3A0BB0EE408AF0EE83
:1052E000608A002413E028469FED371B9FED340BA6
:1052F000FFF7A8FFB0EE40CAF0EE60CA53EC182BDF
:1053000051EC1C0B00F0E6FB41EC180B641C0C2C60
:10531000E9DB9FED2F0B53EC102B51EC180B00F039
:105320007AFC41EC180B53EC1A2B51EC180B00F0E3
:1053300078FC41EC1C0B53EC192B00F0CBFB41EC3F
:105340001B0BB0EE4B0AF0EE6B0ABDEC0A8B70BD86
:1053500010B52DED048BF0EE408AB0EE609A9FED13
:105360001E0AB0EE408A002411E04FF400510120E3
:10537000FFF75BFF00EE100AF8EEC00A9FED171A68
:1053800080EE810A30EE080AB0EE408A641C0C2CD4
:10539000EBDBB1EE080A38EE400AB0EE408AF0EEE0
:1053A000689A48EE099A19EE900A00F02CFD41EC3B
:1053B000100BBDEC048B10BD00000000000030415C
:1053C0000000000000000000000000000000F03FAE
:1053D000000000000000184000000000000000462F
:1053E00070B505460020F749086000241DE0C4F1AF
:1053F0000F060120B040284020B10120F149091FCB
:10540000086003E00020EF49091F08600120ED4912
:10541000091D08600220FEF7F9FE0020EA49C1F8E4
:1054200094020220FEF7F2FE641C102CDFDB012048
:10543000E449086070BD70B505460020E1490C31B3
:10544000086000241DE0C4F10F060120B040284090
:1054500020B10120DB490831086003E00020D94970
:10546000083108600120D749103108600220FEF79A
:10547000CDFE0020D449C1F8A0020220FEF7C6FEEE
:10548000641C102CDFDB0120CE490C31086070BD9C
:1054900070B505460020CD49086000241DE0C4F128
:1054A0000F060120B040284020B10120C549143129
:1054B000086003E00020C349143108600120C3499B
:1054C000091D08600220FEF7A1FE0020C049C1F8B6
:1054D00084020220FEF79AFE641C102CDFDB012000
:1054E000BA49086070BD70B505460020B549203145
:1054F000086000241DE0C4F10F060120B0402840E0
:1055000020B10120AF492431086003E00020AD49FB
:10551000243108600120AB491C3108600220FEF7ED
:1055200075FE0020A849C1F8AC020220FEF76EFE0D
:10553000641C102CDFDB0120A2492031086070BD03
:1055400070B505460020A1493C31086000241DE0EB
:10555000C4F10F060120B040284020B10120994934
:105560001831086003E000209649183108600120D6
:105570009649383108600220FEF748FE0020944921
:10558000C1F8B8020220FEF741FE641C102CDFDBDC
:1055900001208E493C31086070BD70B50546002081
:1055A0008A493031086000241DE0C4F10F06012053
:1055B000B040284020B1012084493431086003E024
:1055C0000020824934310860012080492C31086074
:1055D0000220FEF71BFE00207D49C1F8AC0202202C
:1055E000FEF714FE641C102CDFDB012077493031FC
:1055F000086070BD70B5054600207449243108600C
:1056000000241DE0C4F10F060120B040284020B165
:1056100001206E492831086003E000206B492831E1
:10562000086001206949203108600220FEF7EEFD84
:1056300000206749C1F8A0020220FEF7E7FD641CC4
:10564000102CDFDB012061492431086070BD70B58A
:10565000054600205F49086000241DE0C4F10F06E4
:105660000120B040284020B101205A49091D08609E
:1056700003E000205749091D086001205549091F12
:1056800008600220FEF7C2FD00205349C1F8B402B1
:105690000220FEF7BBFD641C102CDFDB01204D490E
:1056A000086070BD70B5054600204A492839086079
:1056B00000241DE0C4F10F060120B040284020B1B5
:1056C000012044492439086003E00020414924397D
:1056D000086001203F492C3908600220FEF796FD42
:1056E00000203D49C1F88C020220FEF78FFD641CAA
:1056F000102CDFDB012037492839086070BD70B5F8
:105700000546002033493439086000241DE0C4F107
:105710000F060120B040284020B101202D4930392A
:10572000086003E000202B49303908600120294936
:10573000383908600220FEF769FD00202649C1F8CB
:1057400080020220FEF762FD641C102CDFDB0120CA
:1057500020493439086070BD10B52048FFF740FE7D
:105760001E48FFF768FE1D48FFF792FE1B48FFF733
:10577000BAFE1A48FFF7E4FE1848FFF70EFF174875
:10578000FFF738FF1548FFF762FF1448FFF78AFF5D
:105790001248FFF7B4FF10BD70B504460D460B2D3F
:1057A0003ED2DFE805F03D060A1D2125292D3135C1
:1057B000390020B2FFF714FE32E020B2FFF73BFEC3
:1057C0002EE000009082404200804042800242422F
:1057D00000004242B88242420080424210F0FFFF85
:1057E00020B2FFF755FE1BE020B2FFF77CFE17E06A
:1057F00020B2FFF7A5FE13E020B2FFF7CEFE0FE0C8
:1058000020B2FFF7F7FE0BE020B2FFF720FF07E022
:1058100020B2FFF747FF03E020B2FFF770FF00BFA1
:1058200000BF70BD70B504460D460B2D43D2DFE8B6
:1058300005F042060C12181E242A30363C0044F4AF
:10584000805108B2FFF7CCFD35E044F4805108B236
:10585000FFF7F1FD2FE044F4805108B2FFF718FE86
:1058600029E044F4805108B2FFF73DFE23E044F400
:10587000805108B2FFF764FE1DE044F4805108B285
:10588000FFF78BFE17E044F4805108B2FFF7B2FE39
:1058900011E044F4805108B2FFF7D9FE0BE044F464
:1058A000805108B2FFF7FEFE05E044F4805108B2D3
:1058B000FFF725FF00BF00BF70BD70B504460D4661
:1058C0000B2D43D2DFE805F042060C12181E242AE5
:1058D00030363C0044F4005108B2FFF781FD35E05A
:1058E00044F4005108B2FFF7A6FD2FE044F4005144
:1058F00008B2FFF7CDFD29E044F4005108B2FFF7EC
:10590000F2FD23E044F4005108B2FFF719FE1DE058
:1059100044F4005108B2FFF740FE17E044F4005190
:1059200008B2FFF767FE11E044F4005108B2FFF738
:105930008EFE0BE044F4005108B2FFF7B3FE05E021
:1059400044F4005108B2FFF7DAFE00BF00BF70BD9B
:1059500070B504460D460B2D43D2DFE805F0420634
:105960000C12181E242A30363C0044F4405108B270
:10597000FFF736FD35E044F4405108B2FFF75BFD18
:105980002FE044F4405108B2FFF782FD29E044F4CF
:10599000405108B2FFF7A7FD23E044F4405108B29C
:1059A000FFF7CEFD1DE044F4405108B2FFF7F5FDCE
:1059B00017E044F4405108B2FFF71CFE11E044F434
:1059C000405108B2FFF743FE0BE044F4405108B2E7
:1059D000FFF768FE05E044F4405108B2FFF78FFE80
:1059E00000BF00BF70BD00009FED1A1AF5EE000A5F
:1059F00040EE010ABDEEE00AF5EEC00A10EE100A14
:105A0000F1EE10FA38BF401E00EE100A1349F7EE0F
:105A1000001AB8EEC00A30EEC00ADFED0F0A20EE21
:105A2000200AFCEEC00A10EE900AC0F3080000EE57
:105A3000900A01EB8000F8EE600A90ED011A70EE1A
:105A4000600A90ED000A71EEE01A21EE800A00EE85
:105A5000810A704783F9223E000000442C6A000846
:105A6000DFED190AB5EEC00A60EE200ABDEEE01ABD
:105A700011EE100AF1EE10FA38BF401E00EE100AC7
:105A80001349F7EE001AB8EEC00A30EEC00ADFED97
:105A90000F0A60EE200ABCEEE00A10EE100AC0F316
:105AA000080000EE100A01EB8000B8EE400A90ED0D
:105AB000011A70EEC00A90ED000A71EEE01A21EEB4
:105AC000800A00EE810A704783F9223E00000044FC
:105AD0002C6A00082DE9FE4F804681EA0300C00FC2
